:020000040000FA
:1000000002180002180308F808FD0002180B0B3252
:0A0010000B3C220218132C520AE7E1
:07001B0002181B0AFB4B8ECB
:07002300021823E4FFE18C49
:06002B0002182B021E9AD0
:07003300021833122A4222D9
:06003B0002183B7F0722C2
:0600430002184302321313
:10004B0002184BA24C923422021853A24D92372223
:07005B0002185B75C82022AA
:060063000218630246A82A
:07006B0002186B75ED042281
:10007300021873412BD60041073500C134C1374103
:10008300073400E0020200003843E0020200022FBE
:10009300EDE00402000446524545E0010200155418
:1000A300E001020016A5E0E8022568FEFEFEFEFE62
:1000B300FEFEFEFEFEFEFEFEFEFEFEFEFEFEFEFE5D
:1000C300FEFEFEFEFEFEFEFEFEFEFEFEFEFEFEFE4D
:1000D300FEFEFEFEFEFEFEFEFEFEFEFEFEFEFEFE3D
:1000E300FEFEFEFEFEFEFEFEFEFEFEFEFEFEFEFE2D
:1000F300FEFEFEFEFEFEFEFEFEFEFEFEFEFEFEFE1D
:10010300FEFEFEFEFEFEFEFEFEFEFEFEFEFEFEFE0C
:10011300FEFEFEFEFEFEFEFEFEFEFEFEFEFEFEFEFC
:10012300FEFEFEFEFEFEFEFEFEFEFEFEFEFEFEFEEC
:10013300FEFEFEFEFEFEFEFEFEFEFEFEFEFEFEFEDC
:10014300FEFEFEFEFEFEFEFEFEFEFEFEFEFEFEFECC
:10015300FEFEFEFEFEFEFEFEFEFEFEFEFEFEFEFEBC
:10016300FEFEFEFEFEFEFEFEFEFEFEFEFEFEFEFEAC
:10017300FEFEFEFEFEFEFEFEFEFEFEFEFEFEFEFE9C
:10018300FEFEFEFEFEFEFEFEFEFEFEFEFEFEFEFE8C
:10019300FEFEFEE001022650FFE0010226A828E051
:1001A30001022FBBFFE001022FE900E005022FEA65
:1001B3002FED0206094104DE060114004104DD01AE
:1001C3004104DB01C13C011900011700C152412B5D
:1001D300A100412B9600412B9F00412BA000412BF6
:1001E3009DFF4128BF00412860055D2AEB00000008
:1001F30000000000000000000000000000000000FC
:1002030000000000000000000000C142412741003F
:10021300C111C129014000C125C126C127412EA515
:1002230005412F8E00C166432B3C000000412B3B50
:1002330000412B3F00412D07FFC138C13AC1454161
:100243002B6300015400C123C121412B5500412BD5
:1002530062006028261D0609000000030008F687D7
:100263007788CF7FC04FFBDFFDE067000080008011
:100273008680BA05E87300800F000060000041210A
:100283006600412179004121690041216201412138
:100293006C024121640141239E00412161014121FE
:1002A3006A114121630041239B00C149C14A41288E
:1002B300D0964128CC0FE002022FEF0039E005026F
:1002C30030230039040609E0020230280807E0055C
:1002D30002382A0807050609E00202382F0013E056
:1002E3000C02383100000308000300080609060960
:1002F300E00502383D0013FF0609E0020238420020
:10030300000075819075FF03759E02120820021884
:10031300C1020422900076E47E019360F4A3FF54AB
:100323003F30E509541FFEE493A360010ECF54E070
:10033300B4E00EEFFAEEF9A3A3A3A3DAFDD9FB8091
:10034300D654C025E0604B5026E493A3F854072409
:100353000CC8C333C4540F4420C8834004F45680EC
:100363000146F6DFE480B00102040810204080E477
:1003730093A3FAE493A3F8E493A3C8C582C8CAC5B8
:1003830083CAF0A3C8C582C8CAC583CADFE9DEE74A
:100393008085E493A3F8E493A34003F68001F20875
:1003A300DFF402031AC2D5E830E70FB2D5E4C39BEA
:1003B300FBE49AFAE499F9E498F8EC30E717B2D53C
:1003C3001203DE12112EE4C39BFBE49AFAE499F9BB
:1003D300E498F8800312112E30D50DE4C39FFFE497
:1003E3009EFEE49DFDE49CFC227890E4F6D8FD900B
:1003F30000007F007E10E4F0A3DFFCDEFA902F9C68
:10040300A3E583C394204011FEAF829020000E0F1A
:10041300E48002F0A3DFFCDEFA12082002031722B5
:1004230032EF90042D93900800730A20364CE55563
:10043300FF22EFF5552209340939093E09430948DA
:10044300094D0952095C09610966096B097A097F3B
:100453000989099309A7C33609B10A0B0A100A15BA
:100463000A1A0A1F0A240A290A2E0A3D0A470A5BA6
:100473000A600A650A740A790AB50ABA0ABF090446
:100483000000020A000000070582022000000705A1
:1004930002022000000904010001020201000524F8
:1004A30000100105240100010424020005240600B4
:1004B30001070581030800200CA90CAE0CB30CB88E
:1004C3000CBD0CC20CC70CCC0CD10CD60CDB0CE055
:1004D3000CE50CEA0CEF0CF40CF90CFE0D030D0803
:1004E3000D0D0D120D170D1C0000000000005A2DFC
:0D04F3005761766520362E303900AFEF22BC
:100508001201000202000008580600020000000064
:10051800000109020000000100803204030409A25E
:1005280080CACF0998445CAD550641469503860BB1
:100538007300000000000500000600000010000025
:100548002428800000242080000011382100004465
:1005580028800000442080000034382100003F2417
:100568001E16110E0B09070504030201F0C8A79116
:1005780077676046383532302422201400010102A2
:100588000203030404050506060707000DFA200008
:100598000DDC7000000000020C00013F3F3F040426
:1005A80004404040000000000C2C0C360C3B0C4072
:1005B8000C450C4A0C540C5E0C630C810C8636A05E
:1005C80032DD34754606822D1C16131110100BC32C
:1005D8000BF00BF50BFA000301020604057F01F18D
:1005E8008C902BCEE01213BC060C040614140619CA
:1005F80015061E17062E30063334063836063D37E4
:1006080000000626533CEF853C80802F533DEF8049
:1006180008533DDF8003533D7F853D90801D533E49
:10062800DF853EA08015533FFE800D533FEF8008C5
:10063800533FBF8003533F7F853FB07F0CDFFE22CF
:100648007F01F18C902F6D7401F0902F6DE0603078
:10065800F1DDD1E9902F6DEFF0121454D1D8902B21
:10066800CAEFF0121454902F6DE05401F1F160DAE2
:10067800A3E0F460D5EF30E7D1E4902F6DF080CAA5
:10068800B1E97F9FD1CDD1E9902BCBD1E7902BD089
:10069800D1E7902BD1EFF0F187902BC9E0F4601BE4
:1006A800A3E0F46016902BD0E0FD541F240FA3F0B4
:1006B800EDC41354074480902BD0F02212123578E1
:1006C800081211F5E4E5C820E7FB75FF028F9122B7
:1006D800B1E97FD7D1CD7FFFD1CDD1ED902BC9EF37
:1006E800F07FFFD1CDE5C820E7FB75FF02AF91226F
:1006F8007F01F18C304B15F1DDD1E9902F6EEFF0D1
:10070800121454902F6EE020E002C24B304B18D1E7
:10071800D8902BCAEFF1F1600BA3E0F46006EF303C
:10072800E702C24B121454E4FFF18CA24BE433FFEE
:1007380022902E0E12125D902E0E121235F19E90FE
:100748002E12E06F60351217A2D1F8EF600512176C
:10075800B180F61214D0600A902E0E12123578105D
:10076800D1C9902E0ED1C4902E0EF1E3902E12E036
:10077800FFF185902BCD7401F0D322C322D1CD1285
:100788001454E4FFEFB4010775FF02438F4022754C
:10079800FF02538FBF22902E0912125D1217A2D1A9
:1007A800F8EF60051217B180F6B1E57F031214E97E
:1007B800600A902E091212357810D1C9902E09D1ED
:1007C800C4902E09F1E3D1E9902E0DEFF0F1879056
:1007D8002E0DE0FF22B1E97F05C1CD121235E4C12B
:1007E800CD902F6CE014F0E022F0902BC9E0FFF4DC
:1007F80022E0FCA3E0FDD322C0557408C0E0C0820B
:10080800C08375550AE5FF54CF4490F5FF22C055C3
:100818007408C0E0C082C083755520E5FF54CF44FA
:1008280090F5FF22C0557408C0E0C082C08375559A
:1008380036E5FF54CF44A0F5FF22C0557408C0E048
:10084800C082C08375554CE5FF54CF44B0F5FF22F4
:1008580090800401169081B501169085920116903A
:1008680086440116908E550116909F900116909F10
:10087800A3011690A1D1011690A1E4011690851646
:100888000116908664011690A63C011690A53D01BC
:100898001690A24B011690A671011690B89E0116EB
:1008A80090C006011690B996011690CFF8011690DF
:1008B800D0B0011690D5FE011690CF9A011690C0BF
:1008C800BC011690B7DF011690847B011690D7F80B
:1008D800011690D81B011690D845011690B36E01E9
:1008E8001690C8CB011690D9EE011690B55F011687
:1008F80090E0150116908102011690E150011690C2
:10090800DB01011690BA5E011690D8C5011690BE9B
:10091800AF0116908E500116909FA0011690E253D9
:10092800011690E2C5011690C544011690E7E7014B
:100938001690E7F6011690C94F011690E8040116C3
:1009480090C8D9011690E80B011690C9BE011690FF
:10095800E844011690E8E8011690EA40011690C9AB
:10096800FD011690EA7A011690CBAE011690ACC73D
:10097800011690E8B7011690E65A011690C3B10126
:100988001690DFB1011690EC0B011690DFE101160D
:1009980090C898011690C79D011690EC54011690C6
:1009A800EDDD011690C33A011690EDF7011690C4DB
:1009B8006F011690EE17011690E70D011690E518D5
:1009C800011690C1CC011690C1D2011690E74C01D6
:1009D8001690E5AD011690C05C011690CB5C01162F
:1009E80090EA49011690E9C6011690EA3501169079
:1009F800E984011690EA5E011690D31D011690D382
:100A080023011690CEC7011690CE1C011690CE2455
:100A1800011690CFEB01169086A3011690E76701A7
:100A28001690EE2E011690EE42011690EE72011607
:100A3800908E5F0116908E38011690B6DA011690E6
:100A4800B1BA0116908701011690DF69011690EF7F
:100A58003A011690CF8A011690CFB4011690A8AA31
:100A6800011690DB620116908424011690EF9A011A
:100A78001690AD35011690EFE9011690AE170116E4
:100A880090EFFD011690EB38011690F014011690C6
:100A9800C96A011690F017011690F05F011690854B
:100AA8006F011690F0620116909FE6011690C0F053
:100AB800011690E643011690C30A011690DABC01AC
:100AC8001690B68D011690B9BC011690E3F4011684
:100AD80090E36E011690D425011690D0BF011690B0
:100AE800F434011690F134011690F3000116908742
:100AF80039011690F4A1011690F4AE011690D3D4E2
:100B0800011690D329011690D3A8011690F4F0018C
:100B18001690F521011690F548011690F57C0116FE
:100B280090F617011690F5D0011690F63E01169032
:100B380080140116908294011690F698011690A1DF
:100B480059011690A012011690F6AC0116908587EF
:100B58000116908401011690A619011690C11B0177
:100B68004290B6A7014290C200014290C2DD014204
:100B780090B6B8014290C551014290C0C50142905B
:100B8800C653014290C6A6014290C6CB014290C707
:100B98003C014290C7420142908EC5014290C790E5
:100BA800014290C820014290B202014290C8360129
:100BB8004290B50A014290B1B2014290C8CF0142B9
:100BC80090C8D0014290B7680142908FCC01429002
:100BD800C99D01429090E1014290B057014290AF07
:100BE800B80142908000014290CA44014290CA5C18
:100BF8000142908591014290CA5D014290C48101F1
:100C08004290CA6F014290A7020142909EC60142DB
:100C180090CA9C014290CAA9014290B5E501429050
:100C2800CAB5014290B69A014290BBEC014290CA03
:100C3800B8014290B9A6014290BA0C014290B8D4CA
:100C4800014290B603014290CAD3014290C9BF0144
:100C58004290B549014290BCFB014290C6E0014276
:100C680090BBB8014290C5DB014290BA790142902D
:100C7800BC09014290C58C014290CAEF014290B272
:100C88007D014290B40A014290BA54014290CAF0E0
:100C9800014290C646014290C1E2014290BD620104
:100CA80042909D79012C90A107012C90A16A012CFA
:100CB80090A1CB012C90A1DD012C90A1F7012C90E3
:100CC800A21B012C90A23E012C909AF4012C90A218
:100CD8005F012C90A269012C90A2D0012C90A32D29
:100CE800012C90A392012C90A3F6012C90A4000152
:100CF8002C90A337012C90A40A012C90A421012C3C
:100D080090A42B012C90A435012C909C39012C9097
:100D18009C78012C90A4A7012C9080E7012C90A529
:100D280076012C90A5CD012C9097EA012C90A64332
:100D3800012C909D83012C90974B012C90A67C014F
:100D48002C90978C012C90A6C7012C00E709F60877
:100D5800DFFA8046E709F208DFFA803E88828C8352
:100D6800E709F0A3DFFA8032E309F608DFFA8078B2
:100D7800E309F208DFFA807088828C83E309F0A324
:100D8800DFFA806489828A83E0A3F608DFFA805854
:100D980089828A83E0A3F208DFFA804C80D280FA45
:100DA80080C680D4806980F28033801080A680EA73
:100DB800809A80A880DA80E280CA803389828A8318
:100DC800ECFAE493A3C8C582C8CCC583CCF0A3C809
:100DD800C582C8CCC583CCDFE9DEE7800D89828A6D
:100DE80083E493A3F608DFF9ECFAA9F0EDFB228976
:100DF800828A83ECFAE0A3C8C582C8CCC583CCF04C
:100E0800A3C8C582C8CCC583CCDFEADEE880DB890D
:100E1800828A83E493A3F208DFF980CC88F0EF603C
:100E2800010E4E60C388F0ED2402B4040050B9F5F9
:100E380082EB2402B4040050AF2323458223900D93
:100E4800A473BB010689828A83E0225002E722BB91
:100E5800FE02E32289828A83E49322BB010B898202
:100E68008A83F8E0C828F0E822500327C722BBFE8F
:100E780007F8E3C828F3E8228A838982E49322BB2F
:100E8800010CE58229F582E5833AF583E0225006D4
:100E9800E92582F8E622BBFE06E92582F8E222E58A
:100EA8008229F582E5833AF583E49322BB01098917
:100EB800828A83F8E028F022500327F722BBFE0538
:100EC800F8E328F3228A838982F8E4932822BB0175
:100ED8000FF8E58229F582E5833AF583E028F022C8
:100EE8005009C58229F8E58226F622BBFE09C5828B
:100EF80029F8E22582F222F8EA2583F583E9932886
:100F080022BB010689828A83F0225002F722BBFEA7
:100F180001F322F8BB010DE58229F582E5833AF554
:100F280083E8F0225006E92582C8F622BBFE05E9CF
:100F38002582C8F222EF8DF0A4A8F0CF8CF0A42867
:100F4800CE8DF0A42EFE22BC000BBE0029EF8DF042
:100F580084FFADF022E4CCF875F008EF2FFFEE33F4
:100F6800FEEC33FCEE9DEC984005FCEE9DFE0FD5A3
:100F7800F0E9E4CEFD22EDF8F5F0EE8420D21CFE77
:100F8800ADF075F008EF2FFFED33FD4007985006E0
:100F9800D5F0F222C398FD0FD5F0EA22C2D5EC3085
:100FA800E709B2D5E4C39DFDE49CFCEE30E715B239
:100FB800D5E4C39FFFE49EFE120F4FC3E49DFDE4FA
:100FC8009CFC8003120F4F30D507C3E49FFFE49EBB
:100FD800FE22C5F0F8A3E028F0C5F0F8E5821582F6
:100FE80070021583E038F022A3F8E0C5F025F0F090
:100FF800E582158270021583E0C838F0E822BB014B
:101008000A89828A83E0F5F0A3E022500687F00976
:10101800E71922BBFE07E3F5F009E3192289828A62
:1010280083E493F5F074019322BB010789828A83D4
:10103800020FDA500B09C5F027F7C5F01937F72268
:10104800BBFE0D09F8E325F0F3C5F019E338F322E8
:10105800F889828A8374019325F0C5F0F8E49338FF
:1010680022BB010A89828A83F0E5F0A3F0225006A8
:10107800F709A7F01922BBFE06F3E5F009F31922D8
:10108800EF2BFFEE3AFEED39FDEC38FC22C3EF9B67
:10109800FFEE9AFEED99FDEC98FC22E88FF0A4CCC7
:1010A8008BF0A42CFCE98EF0A42CFC8AF0EDA42C87
:1010B800FCEA8EF0A4CDA8F08BF0A42DCC3825F056
:1010C800FDE98FF0A42CCD35F0FCEB8EF0A4FEA941
:1010D800F0EB8FF0A4CFC5F02ECD39FEE43CFCEA4E
:1010E800A42DCE35F0FDE43CFC2275F00875820095
:1010F800EF2FFFEE33FECD33CDCC33CCC58233C5D5
:10110800829BED9AEC99E58298400CF582EE9BFE65
:10111800ED9AFDEC99FC0FD5F0D6E4CEFBE4CDFAC0
:10112800E4CCF9A88222B800C1B90059BA002DEC64
:101138008BF084CFCECDFCE5F0CBF97818EF2FFFFC
:10114800EE33FEED33FDEC33FCEB33FB10D70399A4
:101158004004EB99FB0FD8E5E4F9FA227818EF2F51
:10116800FFEE33FEED33FDEC33FCC933C910D70570
:101178009BE99A4007EC9BFCE99AF90FD8E0E4C98F
:10118800FAE4CCFB2275F010EF2FFFEE33FEED33BF
:10119800FDCC33CCC833C810D7079BEC9AE89940EC
:1011A8000AED9BFDEC9AFCE899F80FD5F0DAE4CD4E
:1011B800FBE4CCFAE4C8F922C3E49FFFE49EFEE412
:1011C8009DFDE49CFC22EB9FF5F0EA9E42F0E99D30
:1011D80042F0EC6480C864809845F022EB9FF5F0FB
:1011E800EA9E42F0E99D42F0E89C45F022E8600F53
:1011F800ECC313FCED13FDEE13FEEF13FFD8F12241
:10120800E8600FEFC333FFEE33FEED33FDEC33FC44
:10121800D8F122BB010789828A8302125D5005E951
:10122800F8021415BBFE05E9F802142122E0FCA31C
:10123800E0FDA3E0FEA3E0FF22E493FC740193FD2C
:10124800740293FE740393FF22E0F8A3E0F9A3E08D
:10125800FAA3E0FB22ECF0A3EDF0A3EEF0A3EFF08D
:1012680022A8828583F0D083D08212128012128045
:10127800121280121280E473E493A3C583C5F0C5EB
:1012880083C8C582C8F0A3C583C5F0C583C8C58215
:10129800C822A42582F582E5F03583F58322E0FB98
:1012A800A3E0FAA3E0F922EBF0A3EAF0A3E9F02225
:1012B800E493FB740193FA740293F922BB01078942
:1012C800828A830212A65005E9F802142DBBFE0596
:1012D800E9F802143F89828A830212B8BB011A898D
:1012E800828A83D0F0D0E0F8D0E0F9D0E0FAD0E0FC
:1012F800FBE8C0E0C0F00212AF5016E9F8D083D086
:1013080082D0E0F9D0E0FAD0E0FBC082C0830214BA
:1013180036BBFE16E9F8D083D082D0E0F9D0E0FAE7
:10132800D0E0FBC082C08302144822BB010DE582D5
:1013380029F582E5833AF5830212A65007E925824A
:10134800F802142DBBFE07E92582F802143FE58256
:1013580029F582E5833AF5830212B8BB0120E582BC
:1013680029F582E5833AF583D0F0D0E0F8D0E0F9AA
:10137800D0E0FAD0E0FBE8C0E0C0F00212AF5018AD
:10138800E92582F8D083D082D0E0F9D0E0FAD0E025
:10139800FBC082C083021436BBFE18E92582F8D050
:1013A80083D082D0E0F9D0E0FAD0E0FBC082C083DD
:1013B80002144822D083D082F8E493701274019307
:1013C800700DA3A393F8740193F5828883E4737472
:1013D80002936860EFA3A3A380DF8A838982E47302
:1013E800EC8EF0A4CCC5F0CCCDF8EFA4CEC5F02D92
:1013F800FDE43CFCE8A42EC8C5F03DFDE43CFCEF50
:10140800A4FFE5F028FEE43DFDE43CFC22ECF608F0
:10141800EDF608EEF608EFF622ECF208EDF208EE2B
:10142800F208EFF222E6FB08E6FA08E6F922EBF604
:1014380008EAF608E9F622E2FB08E2FA08E2F922ED
:10144800EBF208EAF208E9F2221206CDF1E9EF70B0
:10145800FB902BD0E0F4600B902F6C7406F0120711
:10146800E970FB902BCEE071BC148D041495141414
:101478009A15149F1714AF3014B43414B93614BE27
:1014880037000014A7433C10853C80802F433D1053
:101498008008433D208003433D80853D90801D4367
:1014A8003E20853EA08015433F01800D433F1080BC
:1014B80008433F408003433F80853FB0902F6C74C2
:1014C8000CF01207E970FB227F0112078CD24B1235
:1014D80005E97F061206CD91541205E9902BCCE060
:1014E800FF1206CD902BCFE0640222902CAA515D0A
:1014F800902CAE51AFF1A21206F8EF6004F1B18062
:10150800F691D0600A902CAA513578101206C9902D
:101518002CAA1206C4902CAA5135E48026902CB12E
:10152800124E496023902CAE51A6E94A6013120E60
:101538004AFF1206CD902CAFE475F001120FDA8045
:10154800DCE4FF1206CD80D5120787902BCD7401FD
:10155800F022902BE7515D902BEB51AF902BE75188
:1015680035902BD3E024FFFD902BD2E034FF5EFEB4
:10157800ED5FFF902BF0EEF0A3EFF04E606CF142C0
:10158800C3902BD3E09FFF902BD2E09EFE902BF0D0
:10159800F0A3EFF0902BEE1207F99FEC9E5006A3F4
:1015A800ECF0A3EDF0D19012292CF0602DF189F127
:1015B8004B51511188C004C005C006C007D190E93D
:1015C8004A6005F135FF80027F007E00D190F1D39B
:1015D800D007D006D005D00491F3D16CE94A600455
:1015E800F14280737E007F00806D902BEED1986071
:1015F80071902BD21207F9EF9DEE9C400A902BF0C8
:10160800ECF0A3EDF0800D902BEEE0FFA3E0A3CF6C
:10161800F0A3EFF0D19012292CF0602DF189F14B55
:1016280051511188C004C005C006C007D190E94ACD
:101638006005F135FF80027F007E00D190F1D3D0A4
:1016480007D006D005D00491F3D16CE94A6004F1C3
:101658004280047E007F00902BECEE8FF0120FDAB0
:101668008088D322902BF0E0FEA3E0FFC3902BEFFD
:10167800E09FF0902BEEE09EF0902BE75151E4FCB8
:10168800FD1188902BE7515D902BEB41A6902DB969
:10169800E0FEA3E0FF4E22EFF4045FFFE4FEEF70EC
:1016A800037FFF22EFD3940F4009EFC4540FFFEEDE
:1016B8004404FEEFD39403400AEF1313543FFFEEA4
:1016C8004402FEEF30E1010EAF0622AB07AA06EB9B
:1016D800241FFFE43AFEEF7805CEC313CE13D8F9E2
:1016E800F9EB541F902F6FF0AF05F13AFCAF05D11D
:1016F800A4AE01EE14C39FC43354E0F9AF04C3EBA6
:101708009FFFEA9400FEE9FDC3EF9DFFEE9400FE03
:10171800ED600FE0FD6007C374209DFD80067D002D
:1017280080027D007C00EF2DFFEC3EFE22902BF422
:10173800E0FFD19FEFC43354E022902BF0E0FEA3EA
:10174800E0FF22E0FFD19FEF75F020A4FFAEF0E4A8
:10175800FCFD902BE722F1A21206F8EF6004F1B12C
:1017680080F67F0112078CD24B1205E97F06915152
:101778001205E97F011206CD7F039151E4FF0207AC
:101788008C902BF0E0FEA3E0FF902BF4E0FDD1D38A
:10179800902BF2EEF0A3EFF0A32275FF02E5E43000
:1017A800E10675E40675E40322E51530E20FE51558
:1017B80020E50AE51530E0057F01122CD122F1A2BF
:1017C8001206F8EF6004F1B180F622E92FF9EE3A3B
:1017D800FA902BF2E0FFA3E0902CB1CFF0A3EFF04A
:1017E80022E5C85480FF221232B1B401027F0122DF
:0718000002030575ED022251
:101808007FB8902BC9E020E0171205E57F3D12064E
:10181800CD7F2A1206CD7F801206CD7FA6120785BE
:01182800229D
:10182B000238BB902BCBE0120F09902BD0E090002D
:0E183B0001120F1B902BD1E0900002020F1B38
:0F184B0002413A75FF02EF4440F58F228FEF22E2
:10185B00022FFC902F34EFF0E4A3F0902BD7E0FF96
:10186B00B40209740FD1A074B9F0800CEF6404704A
:10187B0044743DD1A07479F01205E5902F34E060EB
:10188B0007902BD6E0FF80027FAB1206CD121454CB
:10189B00902F34E0902BD6F07016902F35E0D39428
:1018AB0000400D7FFF1206CD902F35E014F080EA3B
:1018BB00E4FF12078C2275FF0275E404E4F5E4756E
:1018CB00FF02E5E630E011901215E0540C6009B10F
:1018DB0057901215E054F7F01203EC1246D590070F
:1018EB0036EFF0901200E0B47A14901214E0B49C2E
:1018FB000D900736E0FF64056004EFB4032EE4900F
:10190B000740F0900740E0FFC394805013E42FF59D
:10191B0082E43412F583E4F0900740E004F080E3B6
:10192B00901200747AF0901214749CF0120B8C408D
:10193B0003120B877B017A1279107F01B1217A1286
:10194B0079117D017F21120B827A1279127F22F19C
:10195B00F77A12791D7D017F02120B8290121DE026
:10196B00B401057F01124AC9120B231246D5120B83
:10197B001E900736EFF0120C1D120B14900736E079
:10198B00FF120D2BEF24FFB3926675FF0253E6BFD8
:10199B00123898120B2D12201920660C1232667B0E
:1019AB00017A2779721209987F01122CD1D2AF20BC
:1019BB006602413E120B911208A3120D26120B7DEB
:1019CB0040F2900735E0603F120B50EF7005124E5E
:1019DB00674034E51470FCE51520E503122D3F122A
:1019EB00085DEF70FAB1315004B14350047F01111F
:1019FB005E900735E0B40204E4FF8009900735E000
:101A0B00B403047F01B1AA120B4BE51530E1A5120B
:101A1B0041114002E4F0E51520E5047158B1C812FC
:101A2B004E53C0E07166900738E0FDD0E0FF120C1A
:101A3B0013808112385C1217EFEF7006900735E0B8
:101A4B00604F201C03200949120B50EF7005124EFA
:101A5B0067403EE51470FCE51520E503122D3F129F
:101A6B00085DEF70FAB1315004B14350047F01119E
:101A7B005E900735E070121217EFEF600C1232A375
:101A8B00901215E04408F08008900735E0FF1246ED
:101A9B008F900735E0600C201C09300906200203EB
:101AAB00120970120B911208A31243D412327D1239
:101ABB00328BEF7022F1EEEF6004B15780361217C4
:101ACB00EFEF70301237A9EF702A123728EF64014D
:101ADB00702212329C801D901215E020E216F1EE5E
:101AEB00EF600CB1315004B1435004E4FF115EE4DC
:101AFB0090073FF0203505120B4B80221208B79050
:101B0B00072EE0FEEFC39E4005EF9EFF8008900777
:101B1B002EE0F4042FFF7406D39F5002C235E51557
:101B2B0030E1221241114002E4F0E51520E5047189
:101B3B0058B1C8124E53C0E07166900738E0FDD023
:101B4B00E0FF120C13120AEC12386D413E9007376E
:101B5B00E0FD75F0AA90074512129AED75F002A4FC
:101B6B002430F9740735F0FA7B01227A2B79CE7F7A
:101B7B0003F1F77A2B79D77F08B1217A2B79D47DB2
:101B8B00027F09120B827B017A2B79D27D027F0BAC
:101B9B00120B82902BD21216986006BEFF16BFFF57
:101BAB0013D1A850028004D1B18009902BD2E4F05C
:101BBB00A37440F0D1A850028008902BCF7403F08F
:101BCB008006902BCF7402F0902BCEE01213BC1B2F
:101BDB00F6041C01141C09151C11171C27301C2F93
:101BEB00341C37361C3F3700001C1C75FF01533863
:101BFB00EF8538FD804775FF015339EF800E75FF78
:101C0B00015339DF800675FF0153397F8539C98050
:101C1B002C75FF01533ADF853ACA802175FF0153BA
:101C2B003BFE801675FF01533BEF800E75FF015392
:101C3B003BBF800675FF01533B7F853BCB12145492
:101C4B007F31114EE4FF115E120648902BCC7402CB
:101C5B00F0902BD0E0247F6009047015B129740A31
:101C6B008006110AB1297458F0902BCF7403F0D170
:101C7B00B1902BD1E0F46002A11E902BD4E0FEA317
:101C8B00E0FF64104E7006902BD1740EF0EF6420C1
:101C9B004E7006902BD1740FF0EF64404E7006908F
:101CAB002BD17410F0EF64804E7006902BD1741111
:101CBB00F0E4B5070AEEB40106902BD17412F0E4F0
:101CCB00B5070AEEB40206902BD17413F0E4B507F6
:101CDB000AEEB40406902BD17414F0E4B5070AEEA7
:101CEB00B40806902BD17415F0E4B5070AEEB410C6
:101CFB0006902BD17416F0E4B5070AEEB4200690CB
:101D0B002BD17417F0E4B5070AEEB44006902BD133
:101D1B007418F002175E7D01120B827B01227F305B
:101D2B00114E902BCC22900001740193B40007E468
:101D3B0093B41802C322D3227F017E009017FCE4D8
:101D4B00935EFE7401935F4E24FFB322124E2D70EF
:101D5B000790121CE0700122124E2D60237FFF12A0
:101D6B00002E901216121235EF24FFFFEE34FFFEF9
:101D7B00ED34FFFDEC34FFFC90121612125D800D5A
:101D8B0090121CE0FF12002EE490121CF090123502
:101D9B00E0FD7F011246A89012341238297F0143CF
:101DAB00FB1075FF0243E640EF600D75FF02E5E1A6
:101DBB0020E7FB43FB0D800343FB0E80FEAF82AE9F
:101DCB00837D0190096312179B1212AFE514707992
:101DDB00122D6B5004C259D155900963E0FEA3E05C
:101DEB008E11F512A31212A69004DF1212AFAE11D0
:101DFB00AF127DAA124473E4F5FF75D908F510E50F
:101E0B00155421602CE51530E505E4FF122EC7E4CF
:101E1B00900968F0900968E004F0122719EF600947
:101E2B00900968E0C3941040EB7F02120D4E5315DE
:101E3B00DE9004DBE07F00B403027F01122FEDD2B2
:101E4B0059D155D2EBA23B92ED22902F74E5F4F0D1
:101E5B00E0547FF5F47F827E00122F13D1CDD1BBDE
:101E6B005005E5FC20E6F7305908902F74E04480CC
:101E7B00F5F4D1C6D1BB5005E5FC20E6F775FF01A3
:101E8B00E5D520E702C322E5F4D330E601C3227582
:101E9B00FF028FE322902F35F0902BD622902BD779
:101EAB00E024FE24FD22902BD27401F0A3E4F02257
:101EBB0075FF03E591C330E701D3227FE87E031260
:101ECB002F1375FF0343918022902D54123FDCEBAF
:101EDB00F0902D5A7401F0C258D1C6D1BB5005E514
:101EEB00FC20E6F7122EE2BF0108E4F5FC75FC407E
:101EFB008008122EE2BF0202D32275FF0153D8EFE6
:101F0B00902D55E0FF1249FC75FF0153D5DF53FAB5
:101F1B00FB902D54E0FF122EC7902D55E0902D54C1
:101F2B00B4080BE012238E245212252D8005E012EB
:101F3B00238EFF1247C6902D56E0FF124A2675FFDF
:101F4B000175FF03759B04D1C675FC42E5FC20E1CE
:101F5B0004D1BB40F4902D57E0F075FF03E59B20B7
:101F6B00E704D1BB40F4E59B20E70D75FF03759BA0
:101F7B001F122D87D2588050F1E7124792902D55A2
:101F8B00E0FD90120FE05D701D902D54E0FFF1E726
:101F9B00123A0190120FE0FF902D55E0FEEF4E909C
:101FAB00120FF01224EC122EAC7B017A2D79581201
:101FBB002E8F500FC3902D59E09420902D58E09404
:101FCB000340E6F1E71247F41226F3305802C1DC66
:101FDB00902D5AE0B40103D38001C3227B017A2DEB
:101FEB00795A221232B1B402027F01227B017D01A8
:101FFB00120B827B01229026BFE075F016A424E918
:10200B00F9741F35F0FEAF01E4FCFD02079E121BB5
:10201B0076120B41120C18120B96900736E06401E6
:10202B00700201C47FFF12089490094E1212AF7E0A
:10203B00007F151113BF540D7E007F161113BFA522
:10204B00047F0180027F00900734EFF0640170463B
:10205B0090094E1212A6AE023123900954E0FEA352
:10206B00E0FF90094E1212A631D1E92407F9E43AA8
:10207B00FA9009511212AFE92408F9E43AFE312320
:10208B00900954E064067004A3E064096008120828
:10209B0099900734EFF0900734E0701D7E007F10AD
:1020AB00C006C374439410FE7438940012374BD09F
:1020BB000631D9E4FFFE12089E120A51120984124E
:1020CB000907306605754E01802D124DE31208622B
:1020DB00F1F1FE4FFDA3E0FC4DFDA3E0FB4D600BCA
:1020EB00EE5FFFEC5FFFEB5FF4700231FF90073B9D
:1020FB00E0654E90072FF0E4902D45F0902D43F0C6
:10210B00A3F00200127E267FAAE4FDAB05E4FCFDE2
:10211B00902E12EBF0020739AF017B017A0979544B
:10212B00902DB47402F0801E902ED4E075F005A4AF
:10213B00242EF9742B35F0FEAF017B017A2A79E658
:10214B00902DB47405F0902DB11212AFE4FCFDC0CC
:10215B0007902DB11212A6902DB4E0FF902CBAE48B
:10216B00F0A3EFF0D007902CB312125D902CB712A6
:10217B0012AF1217A21206F8EF60051217B180F515
:10218B001205E57F031214E9600B902CB312123584
:10219B0078101206C9902CB31206C4902CB31207F8
:1021AB00E3902CBA124E4960151206E9902CB71227
:1021BB004DF6902CB8E475F001120FDA80E312148F
:1021CB0054E4FF02078CC3E99FF9EA9EFA2231E33C
:1021DB0074FFFDFC227405F0902D3A1212AFE4FC53
:1021EB00FDC007902D3A1212A6902D3D124E3CD0F9
:1021FB000702155AE4FF122CD1EF6038124E08512A
:10220B00405005124FC540F47B017A07793B514092
:10221B00500EF1F15FFFA3E05FFFA3E05FF460E816
:10222B007F01122CD1754E017E007F08124E0812D1
:10223B004F26F1EC22902C4C122F70902C52121234
:10224B006900000001902C567401F0F5FFE5D554A0
:10225B00C07005122D735002C322E4F5FF53967F15
:10226B0075FF0175D5047F3FFED1EE75FF0143D598
:10227B0008E4F5FF5394FBF5FF53847FF5FF759846
:10228B00FF902C50E5F4F075F49C75FF01A3E5E489
:10229B00F075E4257B017A2C7956124792902C56D7
:1022AB00E064016002616BF5FF902C4F7414F090A9
:1022BB002C52719BFF7801121208902C5212125D56
:1022CB00E5A730E1FB43A702902C52719BFFE5A7DA
:1022DB0030E005E47B018002E4FBFAF9F8EF4BFFF9
:1022EB00EE4AFEED49FDEC48FC902C5212125D902B
:1022FB002C4FE014F070B8902C52719BFF78101299
:10230B0011F57B6D7A4E79C678411210A3EF243903
:10231B00FFEE3430B130E4FBFA7901F812112EEEF6
:10232B00547FFEE4FDFC124EBE902C52719BFFEBD2
:10233B006FFFEA6EFEE8CDEFCDCCEECCECFF902C30
:10234B004CD1E1EF120F09902C4CD1E1900001ED33
:10235B00120F1B90120FE030E606E4F5FF75968026
:10236B0075FF01E4F5D5902C50E0F5F475FF01A352
:10237B00E0F5E412489A902C56E0B40103D38001A7
:10238B00C322EB25E025E02401F582E43412F5832A
:10239B00E0FCA3E0FDA3E0FEA3E022902B081212C9
:1023AB005D75FF0243E180122D871249CB902B1DE7
:1023BB00121269002DC6C0E4F5FFF5A490120EF0C1
:1023CB00A3F0902B187402F0D1CDFFF595EF1460AC
:1023DB001314601C24027027902B08719BB1D890AA
:1023EB002B148016902B0C719BB1D8902B15800A57
:1023FB00902B10719BB1D8902B16E0902B21F012E3
:10240B0049EF902B21E0700FF5FFF59675FF0175E5
:10241B00D70975F418805B90120EE004F0902B181E
:10242B00E0122F68902B1D719BFF902B19124EDF22
:10243B00C31211E4500A902B19719BFFA312125D6A
:10244B00902B21E0FF12484C902B17E0FFA3E0FDEF
:10245B00A2579255124979A3719BFF902E1E12120F
:10246B005D902B18E0FFB138902B18E0718EFF12A6
:10247B0047C6D1D5600261D37402F0D1CDF595E595
:10248B00F45407701A902B1DB10E78011211F590B0
:10249B002B18E0FBB1CA12125D718DFF1247C6D12A
:1024AB00D570D875FF03759580122F60400343F4E8
:1024BB0020A25792561248AB902B1D719B2420FFE4
:1024CB00EE344EB130E4FB7A04F9F8B11E78011208
:1024DB0011F5C254B1DFE4F5FFE5BD54F84404F542
:1024EB00BD9012137401F07E127F01E4FD8F828E7A
:1024FB0083EF2D124FCDFC901213E02CF00DEDB4A9
:10250B0012EB22FF7E04FDFCE0F8A3E0F9A3E0FA56
:10251B00A3E0FB1210A3E47B7DFAF9F812112EEF66
:10252B002401FFE43EFEE43DFDE43CFC22902E1D25
:10253B00EFF0E4A3B10E78011211F5902E1DE0FB24
:10254B00B1CA12125D901210E064806071E0C39406
:10255B007F5038EBB1CAC083C082719BFFEEC0E0E5
:10256B00EFC0E0901210E075F004A4AEF0FBCAEEE1
:10257B00CAEA3395E0F9F8D0E0FFD0E0FEC3EF9B59
:10258B00FFEE9AFEED99FDEC98802B902E1DE0B19D
:10259B00CAC083C082124EDF901210E0F40475F0B3
:1025AB0004A4FFAEF0EE3395E0FDFCEB2FFFEA3E0B
:1025BB00FEE93DFDE83CFCD082D08312125D222562
:1025CB00E025E02401F582E43412F58322FF902B01
:1025DB001902125D902B6C12125DE4F5FF75BB05B1
:1025EB0075BB8575FF0175D5022054087F3FFED161
:1025FB00EE122EAC75FF0143D520305402C1A6E478
:10260B00F5FF538EF7438E077D04E4F5FF8DBCF584
:10261B00FF43B102E5B130E2FBE4F5FFAFDFEFFEC4
:10262B00ACDEECFBEBFFED25E0246AF582E4342B0A
:10263B00124F86E4F5FFF5FF53B1FD0DEDB40CCA57
:10264B00902B6C719BFF78091211F5A3EEF0A3EFA1
:10265B00F0E4FDED25E02474F582E4342BF583E002
:10266B00C313FAA3E013FBD1C0124AC12BFFEE3AFE
:10267B00FED1C0EEF0A3EFF0ED240490120DF0EDBF
:10268B00C394075016CFEDCF0DEFD1C1124F2D9044
:10269B002B71E09F902B70E09E50B8E4F5FF758E88
:1026AB00C8F5FF90120DE0F5BCE4F5FF75BB807526
:1026BB00FF01F5D522ED25E02472F582E4342BF5EC
:1026CB00832275FF03902B18E022902B18E0FF1448
:1026DB00F0EF22902E7CE0FBA3E0FAA3E0F9227F3F
:1026EB00147E00D1FC121ECD75FF03E59120E7FB94
:1026FB002275FF03D3EF9402EE9400400874FE2F73
:10270B00FF74FF3EFEEFF592EE540FF59122E4902D
:10271B002E73F0A304F0E4902E76F0E5FA30E1FB93
:10272B0075FF01E5D530E7037F0022E4F5FF75E582
:10273B000875FF0153D8EFE5D530E61A75FF019008
:10274B002E75E5DAF0E4F5DA75FF01E5D630E3FB3B
:10275B00902E767401F075FF03759B0475FC417523
:10276B00FF03E59B30E7FBE4FB75FF038B95718D56
:10277B00FF1247C60BEBB403F075FF03759580E4AE
:10278B00F5FF758EC8122EAC75FF0153D5FB122DBC
:10279B00A3D1EA75FF0143D504902E76E0700712A2
:1027AB002DA37FC8D1EC7B017A2E79741247F4905C
:1027BB002E74E0902E737006E04404FF8002E0FF5D
:1027CB00902E73EFF090120EE0B4010675FF0143EB
:1027DB00D81075FF01902E75E0F5DA902E73E0FF9F
:1027EB00227404F021E3900739E0FFA3E022902A42
:1027FB00B612125D902ABA1212AFE4902ADFF0D310
:10280B00902ABEE09420902ABDE094004001227BE8
:10281B00017A2A79BF902ABD71C3902AB61212355C
:10282B00122171902ABA1212A6E94A600B902ADF84
:10283B00E0F5823126FF80027F00902ADFE024BF83
:10284B00F582E4342AF583E06F6002C322902ADF1D
:10285B00E004FFF0D3902ABEE09F902ABDE09400E5
:10286B0050C12231161212AFE4902C1AF0A304F0CF
:10287B00902C1712169870022110D3EF9420EE941F
:10288B000040047F208006902C17A3E0FF902C19AA
:10289B00EFF0902C141212A6902C19E0FF902ABD89
:1028AB00E4F0A3EFF0902C101212351227F9400E22
:1028BB00902C1AE0FFA3E0FEEF4E902C1AF0902C18
:1028CB0019E0FFC3902C18E09FF0902C17E09400B8
:1028DB00F0902C10121251902C19E4FCFDFE1210EA
:1028EB008831161212A6E94A6007902C19E0FF8076
:1028FB00027F00902C15E48FF0120FDA902C1BE066
:10290B0025E0F0017B902C1AE0FF22902C10121284
:10291B005D902C14221212A61E8E82758300020E5D
:10292B0087902BF0E0FFA3E0902C17CFF0A3EFF0F4
:10293B00902BE7121235116E902BF4EF22902E0391
:10294B0031B9E58F20E0FB31C0E4FF902E0312126A
:10295B00A68F823126F5930FEFB410EFE4FF902E84
:10296B00061212A68F823126F5940FEFB410EF22C8
:10297B00902CD731B9E58F20E0FB31C07E10902C25
:10298B00DA3120F593EE70F67E10902CD73120F5CE
:10299B0094EE70F67F0131D071BAEF70FB7E109020
:1029AB002CDD1212A61E8E82718CEE70F222121288
:1029BB00AF75FF012275FF01538F0675FF01538F12
:1029CB00F075FF0122EFB4010771AB4401F58F22C3
:1029DB0075FF01E58F54F04406F58F22902E4F12B0
:1029EB0012AF902E5251AF943F4003743FF075FFDE
:1029FB0002E5CD20E13EE5FD254D04543FFFE5DD2D
:102A0B00543F6F6027902E52515A5020902E4F12E8
:102A1B0012A6854D823126AEFD7181543F248EF571
:102A2B0082EC3406F583EFF0054D80CAE5FD254DAC
:102A3B00543FF5FDAF4D22902F9BEFF07B017A2F8A
:102A4B00799B7D0131E77F0122902BCDE0FF22E0C6
:102A5B00FFE54DC39F22902E571212AF902E5A5165
:102A6B00AF943F4003743FF075FF02E5CB254D5407
:102A7B003FFFE5DB543F6F601E902E5A515A5017A3
:102A8B00ADCB7105543F244EF582EE3406F583E051
:102A9B00902E57710D80D4E54D600625CB543FF534
:102AAB00CBAF4D22EDF0E4F54DEDD322902E5B1222
:102ABB0012AF902E5E51AF941F4003741FF075FF41
:102ACB0002E5CC254D541FFFE5DC541F6F601E90B3
:102ADB002E5E515A5017ADCC7105541F24CEF58282
:102AEB00EE3406F583E0902E5B710D80D4E54D60DE
:102AFB000625CC541FF5CCAF4D22ED254DFF7E00A6
:102B0B00EF22FF1212A6854D82758300EF120F1B69
:102B1B00054D22902E531212AF902E56EDF0E4F588
:102B2B004D75FF02EDD3941F4003741FF075FF0228
:102B3B00E5CD20E23EE5C9254D04541FFFE5DE54EB
:102B4B001F6F6027902E56515A5020902E53121201
:102B5B00A6854D823126AEC97181541F24EEF582B4
:102B6B00EC3406F583EFF0054D80CAE5C9254D54CD
:102B7B001FF5C9AF4D22FFE54DFDEE2DFD7C00EDA0
:102B8B0022758300E593020F1B902F3131B9E4FFBF
:102B9B00902F311212A68F82718C0FEFB410F1228D
:102BAB0075FF01E58F54F62271AB4408F58F227542
:102BBB00FF01E58F5401FF22E0FFA3E0902CBACF79
:102BCB00F0A3EFF0227B017A2F796A7D015161909E
:102BDB002F6AE0FF22E4902BCDF022E4FD7C0CABBE
:102BEB00050DEB9004F1938F828E83F00FBF0001E4
:102BFB000EDCEC02003E8F828E83E4F07406912390
:102C0B0074099123A3A3E4F0EF2404F582E43EF5C9
:102C1B0083E4F0A37469F022A3F08F828E83A32246
:102C2B00902F70EFF0902BF5E0B40110C2ED7A2FDE
:102C3B007970902C8F9148120BA0D2ED227B011250
:102C4B0012AF7A2B79F622902BF5E0640170287B7A
:102C5B00017A2B79F6120BAAEF701C902F71F0C230
:102C6B00ED7A2F7971902C659148120BA5D2ED90CE
:102C7B002F71E0FF120B6E22902BF57401F0FB917C
:102C8B00A67E2C7F5290073DE0FCA3E04C700A908F
:102C9B00073DEEF0A3EFF0D322C3227A2B79FE90FF
:102CAB002D231212AF902D267401F0A37405F07A28
:102CBB002B79F6020B9B7F0191D1902BF5E0B401A0
:102CCB00047B0191A622EF600E121B58AF82AE83DC
:102CDB00E4FD121DCE800F3034037F0022120B5FF8
:102CEB00B13FE433FF227F012290097B1212AF9098
:102CFB00097EEDF0E4A3F0ED54FE90097EF0602A1E
:102D0B00E4FF91D1BF012390097B1212A61222403E
:102D1B00501890097CF15190097FE02402F0900942
:102D2B007FE0FF90097EE06F70DD7F0191D190090C
:102D3B007FE0FF22E5147026B16B5005C259121EBD
:102D4B0055B1877F08120D4EF1B9E5D120E0FB4359
:102D5B0015205315FEE4F510A23B92EDD322C322AE
:102D6B00C2EBA2ED923BC2EDE5F4C330E701D322F7
:102D7B00B1735006F14A50028001C322E5FA30E1EB
:102D8B00FB75FC8075FF0153D5EFE4F5FC75FC403A
:102D9B00B1A3E5FC20E6FB2275FF03E4F59122E5E8
:102DAB00F730E50FE5F754C07005121EBB40F0B1CC
:102DBB00A3C322D322902E7BEFF0A3F17075FF01FA
:102DCB00D1E2EF64016002C322E5F430E602C322D4
:102DDB007FE87E031226FC121ECDB1AA400122C24F
:102DEB0059121E55902E7BE0FFD1C753F4DFD259F9
:102DFB00121E557F787E00D13D75FF0153E4BFE570
:102E0B00E430E7FBF1797F8AD18730E6061226DEC4
:102E1B00E4800875FF011226DEE5D9120F0975FF54
:102E2B000143E440F160400343F420B1AA40012286
:102E3B00D322CDEFCDCCEECCD17BAB94EF4BD1A449
:102E4B00CBEFCBFAE59130E718D17EA994E9F58267
:102E5B00EF4582FFEBF158C3EF9582E5F095834088
:102E6B00E3E59120E709CEECCECFEDCF1226EE2293
:102E7B0075FF03AF93EF75F010A4FF22FED13D90C9
:102E8B00120FE022D17BAD94EF4DD1A48FF0121035
:102E9B0069E591C330E701D32224FBFFE5F034FF52
:102EAB0022E4F5FF75C2E17F1ED18730E707E4F519
:102EBB00FF75C2A122E4F5FF75C2812275FF01E502
:102ECB00D530E602C322E4F5FF439A80EFF168E4C4
:102EDB00F5FF539A7FD3227FFA7E001226FC121E37
:102EEB00CDE5FC30E605121EBB40F6E5FC30E603F3
:102EFB007F032275FF01E5D530E6037F0222E5D57E
:102F0B007F0030E7027F0122902E6BEEF0A3EFF0F3
:102F1B007B017A2E796DD18F5014902E6DE0FEA32C
:102F2B00E0FF902E6CE09F902E6BE09E400B902E5E
:102F3B006BE0FEA3E0FF1226FC22E4F514A13FE5B3
:102F4B00F754E024FF22E475F002020FDA2DF5822C
:102F5B00EA3CF5832290120EE0D3940122333333F3
:102F6B0054F8F5F422EBF0A3EAF0A3E9F02275FF95
:102F7B0001E4F5EA75EAFF22F179AFD922E4FFE526
:102F8B00F754C0600280F175FF01E5D530E30DF118
:102F9B00A850F4F183EF60EFF1A850EB2275FF011D
:102FAB00E5E433227D0291F4EFC36001D322E4F513
:102FBB00FFE5D154FE4402F5D122C259121E55F140
:102FCB00B9E5D120E0FBE4F5FF75D9089004DBE00F
:102FDB007F00B403027F01F1EDD259121E55E4F5C7
:102FEB001022D1C743FA04E4F5FF53D1FD43D101BD
:102FFB0022C0E0C0F0C083C082C0D075D000C0003A
:10300B00C001C002C003C004C005C006C007902F9A
:10301B0072E5FFF075FF02E5D430E60D75D44090F4
:10302B002DB51216986002316B75FF02E5D430E5B1
:10303B000D75D420902DB71216986002316B75FF69
:10304B0002E5D430E40A75D410121695600231C132
:10305B0075FF02E5D430E30D75D408902DB512162B
:10306B00986002317475FF02E5D430E20D75D4041B
:10307B00902DB71216986002317475FF02E5D430AB
:10308B00E11575D40231CAEF600D1216956004314B
:10309B00B880043185317D75FF02E5D430E01175C0
:1030AB00D40112169560098F828E837F071213E667
:1030BB0075FF02E5D530E41175D510121695600930
:1030CB008F828E837F031213E675FF02E5D530E105
:1030DB000A75D502121695600231AF75FF02E5D560
:1030EB0030E01175D50112169560098F828E837FA2
:1030FB00041213E675FF02E5D530E21175D5041203
:10310B00169560098F828E837F0A1213E675FF0274
:10311B00E5D530E71175D58012169560098F828E33
:10312B00837F081213E675FF02E5D530E61175D5DE
:10313B004012169560098F828E837F091213E690D9
:10314B002F72E0F5FFD007D006D005D004D003D006
:10315B0002D001D000D0D0D082D083D0F0D0E032DA
:10316B008F828E837F010213E68F828E83E4FF02B0
:10317B0013E631A5E4F59E7F012275FF0153CCFDCB
:10318B0043FB4031A5759E0143FB0975FF03859EEB
:10319B009E75FF03859E9E7F012275FF0243D20120
:1031AB0075FF03228F828E837F060213E68F828E3A
:1031BB00837F020213E68F828E837F050213E675EF
:1031CB00FF02AFD3EF7F0030E6027F012275FF02D3
:1031DB008FD675FF02AF058FD77F01EFC36001D389
:1031EB0092ED22E475FF02AFD4CDEFCD75FF02AFA8
:1031FB00D5EFFCEDCEECCEFF2275FF02EFF452D4EF
:10320B0075FF02EDF452D52275FF02E5DB543FFF4B
:10321B00E5CB543F6F7F0060027F012275FF02E513
:10322B00DC541FFFE5CC541F6F7F0060027F01222F
:10323B00AD07901215E054FCF0E0FFED54307E002A
:10324B0060027E02EF4E901215F0E0FFED7E003033
:10325B00E0027E01EF4E901215F0229007417402AE
:10326B00F0900734E0FF120D30513B90074174058D
:10327B00F02290073FE0FF120D21900744EFF02260
:10328B00900744E07F0070027F0122E490073FF03B
:10329B002290073F7401F02290073F7402F02251F5
:1032AB00B170027F012290073FE07F002275FF0281
:1032BB0075E40475E40175E4022275FF0275E404FC
:1032CB00E4F5E422D2091208B7900742EEF0A3EF1F
:1032DB00F022F167EF70087FA07E0FFDFC617CF19F
:1032EB001E902B97EFF07406D39F4067E0605A71E6
:1032FB00F27E00902B97E014FDE5F0A80508800501
:10330B00C333CE33CED8F9FF71EB71DD902B98120E
:10331B001251C000C001C002C003902B97E014FFF4
:10332B0074107E00A807088005C333CE33CED8F9BE
:10333B00FFEE3395E0FDFC71E31210A3D003D00236
:10334B00D001D000121088802871F2AFF07E00718E
:10335B00EB801E902B9FE0FF600FE4FCFDFEFB7AE1
:10336B00F47901F81210A380087F007ED07D077CD2
:10337B000071DD91057E347F75C006C00771D5D114
:10338B0086D007D006D15EF13FEF703D71D571E36A
:10339B00D31211E44007E47F01FEFD802471D57147
:1033AB00E312112E71DD71D5E47B01D170501471D4
:1033BB00D5C3EF9401FFEE9400FEED9400FDEC9469
:1033CB000071DC71D5913151CF22902B98021235BF
:1033DB00FDFC902B9802125DE47BE87A03F9F8224E
:1033EB007C007D640213E871FAEF75F0A0842290E3
:1033FB00072FE064AA2411FFF022D17EEF600FE4C7
:10340B007FA07E0F71DB901215E054E7F022901233
:10341B0015E0FF74E0D39F4005E02410F022EF6429
:10342B0010901215F022902E6712125D916FE47BB3
:10343B00FFD170501CE4916E12112E9012161212C5
:10344B005DE47BFFFAF9916E12112E90121CEBF0DA
:10345B002290121612126900000000916F90121C3C
:10346B00EFF022F8902E67021235D192902B9CE050
:10347B00B4020AD177902B9C7403F0A122902B9C61
:10348B00E064037079902B9EE06056902BA0E0B423
:10349B000105120B0A800A902BA0E0B40203120B59
:1034AB000F902B9EE014F0E0601F71FAEF75F04661
:1034BB0084E5F075F064A4FFEF24A0FFE5F0340F72
:1034CB00FEE433FDE433FC8007E47FA07E0FFDFCBC
:1034DB00902CF212125D7E347F75E4902CF6F0C1C5
:1034EB005E902B9C7401F0B122902BA374FDF09095
:1034FB002BA27407F07B017A2B79A2020D35902B4E
:10350B009CE0B4040ED17EEF6006F152E4FF41DD86
:10351B00120B0A227401F0902B9CE0640270207C49
:10352B00367DA07F011209C57E347F75C006C007AA
:10353B00E47FD07E07FDFCD186D007D006C15E901C
:10354B002B9CE064037017FFFE71DB902BA0E07CDB
:10355B00367DA0B402047F0380117F02800D902B77
:10356B009CE0B4040B7C367DA07F041209C58175E9
:10357B00902B9CE0B4010BD177D192B18EE4902BC0
:10358B009CF022901215E05403F022902D46EFF0A0
:10359B00C252120A9CEF542364206023902B9CE0B0
:1035AB00601D7B017A2D7947F107F10D902D477442
:1035BB0006F0A3E54EF07B017A2D7947120D35907D
:1035CB002D46E0607DD167E06002B11F902D46E093
:1035DB00FFB40107902BA074018009EFB403109086
:1035EB002BA07402F0B18E902B9E7404F0804BEFE5
:1035FB0064047038120A9CEF5423FFBF2013D2527D
:10360B00F133EF7004B18EF116902B9C7404F080A3
:10361B0035120A9CEF5432FFBF020C900736E0B410
:10362B000505E4F0120B05B18E7F0022902D46E0CC
:10363B00B40213E4902B9EF0B18E902B9C7402F08D
:10364B008004D16704F0B122902B9CE07F006002D4
:10365B007F01221208B2902BA1EFF022E4902BA055
:10366B00F0902B9C22FAF9F8C30211E4E4FDFCFF65
:10367B000209C5901215E05408FF22902CF2121289
:10368B005DE4902CF6F022902BA1E0FF1208ADE444
:10369B00902BA1F022902E631212AFD192902E6339
:1036AB001212A6120E4A902E66F0902E63F1047B36
:1036BB0001F10D902E66E0B40119902E63D1FD122D
:1036CB003E40902B9DF074FE120F09902B9C7405BD
:1036DB00F08015902E66E0FF64066004EFB40711CE
:1036EB00902B9CE06002B11F902E631212A6120D5C
:1036FB0035221212A6E92401221212A6902D66027F
:10370B0012AF7A2B79A27F06020885901215E0443E
:10371B0004F022901215E0C4135407FF22200D056C
:10372B0051CF7F01227F0022901215E07F0030E203
:10373B00027F0122901215E07F0030E0027F012210
:10374B00902D3DF0A3CEF07B007A00790022AE07DE
:10375B0071FAEE04FEEF8EF084AFF022901215E0BA
:10376B005414FFBF14047F0180027F0022902E1897
:10377B0012125D902E1CE05402901234F0902E1811
:10378B001212358131C003C002C0017B017A2D7941
:10379B0041F107D001D002D0037F02020885902BA4
:1037AB009CE0B4040D902BA1E06007F13FEF700299
:1037BB00FF22902B9CE0FF22A2EB9251C2EBEBC0BD
:1037CB00E0EAC0E0E9C0E07B017A0479E2F107D0DE
:1037DB00E0F9D0E0FAD0E0FB7F0C120885A2519201
:1037EB00EB229009B1EFF0A3EDF05402901234F0FC
:1037FB00F128EF7002C3229009B1E0B40411A3E0E9
:10380B00FB7D017F01112F9009B17403F0800590AE
:10381B0009B211299009B1E0900735F0D322E0FBF2
:10382B007D01E4FFEB600875FF0153CDFD8006754C
:10383B00FF0143CD02ED600553FBDF800343FB200B
:10384B00EF600775FF0243E1402275FF0253E1BFB2
:10385B002230360D12092FEF6007C25F12091BC20F
:10386B00362290073D1216986009CAEECAC9EFC9F5
:10387B001213E222EFB40103D2EF22C2EF22E5C80A
:10388B005440FF75C84022E5C85420FF22D2ADD268
:10389B00BD75FF02758E71754F0975FF02E58E546C
:1038AB006F4480F58E902E5F12126900000000228B
:1038BB00C0E0C0F0C083C082C0D075D008C0FF7517
:1038CB00FF02E58E30E43E75FF02E58E54EF4410A7
:1038DB00F58E902E5F12123512252A902E5F121242
:1038EB005D900000E475F001120FDAE54F30E00255
:1038FB000541E54F700D754F09054AE54A70020504
:10390B00498002154F75FF02E58530E40875FF020B
:10391B004385100553D0FFD0D0D082D083D0F0D0C8
:10392B00E032E49004FCF09004EE04F022AF14EFCC
:10393B00C36001D322EFC3940E50059004DEEFF069
:10394B0022E517540FFF22E517C394F0501F5317AE
:10395B00F0317BFE740FC39F4005EE940E40054380
:10396B00170D8003EF4217E517540FFF227F00223C
:10397B00E517C4540FFEEF900584932E22317BFF85
:10398B00C3940E40027F0DEF90056693FF22EF303C
:10399B00E303AF1322AD1B203C04EE30E00BE51725
:1039AB00C394F0502031D38018E5196006FDE4F57F
:1039BB00198012E517C394F0500BE517540FFF60F5
:1039CB00043188AD07AF05229004DEE0FDFFC37420
:1039DB000E31FAEFC4F8540FC868FFEEC454F04828
:1039EB00FEE51754F0C371927F005002AF05229F82
:1039FB00FFE49400FE22902E77EDF0901211E0F48C
:103A0B006005A3E0B4FF0C902E797418F0A3741327
:103A1B00F08010901211E0902E79F0901212E0903D
:103A2B002E7AF0120E4A64016002616B902E77E0E1
:103A3B00FE64086004EEB40408902E787428F080BD
:103A4B0006902E78743AF0EF12238EFF1211C0E419
:103A5B00716CEF24D8FFEE343FFEED3493FDEC3464
:103A6B0016FC7B007A80790378001203A8124EBEF5
:103A7B00902E7AE0FF902E79E0C331FAE4FCFD1230
:103A8B0010A3ECC0E0EDC0E0EEC0E0EFC0E0902E84
:103A9B007AE0FFE4FCFDFE716CD0E0FBD0E0FAD0E5
:103AAB00E0F9D0E0F8EB2FFBEA3EFAE93DF9E83C10
:103ABB00F8902E78E0FFE4FCFDFE1210A3EF2454E7
:103ACB00FFEE340B122530E47BA87A16F9F81203BB
:103ADB00A8CBEFCB902E77E014605D14601B24FE17
:103AEB00600C24FC707AE4F5FF75CE318006E4F5AA
:103AFB00FF75CE21F5FF8BCF22E4FAE4F5FFEA2424
:103B0B0040F5CEE4F5FFEAFFC3740731FA74CE2F0C
:103B1B00F58274053EF583E47174C39DF5CFE4F52E
:103B2B00FFEA2448F5CEE4F5FFEA9005CE71742D3B
:103B3B00F5CF0AEAB408C422E4F5FF75CE01F5FF10
:103B4B008BCFF5FF75CE0EF5FFEB25E0F5CFE4F54A
:103B5B00FF75CE0FF5FFCFEBCFEB75F003A4F5CFD1
:103B6B00227B64FAF9F80210A39325E0FDE433FC01
:103B7B00EB75F010A4FFAEF0120F4FCDEFCDEBFFB6
:103B8B00E4C313EF1322D39FEE6480F87480982262
:103B9B0090051B1212AFD24FC2EBE5146002A1EFDE
:103BAB00E51530E202C322B1F824E3F1C21245B1AC
:103BBB00D1475407FF9004DDF012409D90051EEF96
:103BCB00F0E51520E06B122D7340057F01122CD10F
:103BDB0090051EE0FF7B017A05791F122DC0E4339F
:103BEB007004D2EBA1D590051EE024ADF1D2E0FF1D
:103BFB0090051FE0D39F4039D2EB1244DEA23B92DB
:103C0B00ED9004EEE06010B1F824E3F1BB120F0964
:103C1B00431504D190D3229004FCE070127A0479FE
:103C2B00FC7C397D2D7464F1B4E4A3F01208C6C397
:103C3B0022122D735005C259121E55122FB9E5D100
:103C4B0020E0FBE4F510D1475407C39403E4940040
:103C5B005032B1F824B1D140B1F724D8D1402FFF65
:103C6B00E433FED3EF9440EE648094804016B1F8B9
:103C7B0024E3F9E43AFA7402120F09431504A23B48
:103C8B0092EDD322B1F82408F9E43ACFE9CFF5113C
:103C9B008F12B1F824B1D140F516AE11124B15B1FC
:103CAB00F824B2F9E43A8B1CF51D891EB1F824D81F
:103CBB00D140F51FD147FDACF05460602EB1F82414
:103CCB00D9D140FF1244B8C24FD130FB7A009004D7
:103CDB00FDF1CA7D18120F3DEF2BFFEA3EFEEF24DC
:103CEB0014FBE43EFA7D027F01A1C5D14754079036
:103CFB0004DDF0751408B1F8F16B12439BB1F82495
:103D0B00D8D140FFAD1612444C9004DDE064037033
:103D1B00227B01FDD100719150057401120EB4E4A8
:103D2B00F5FFF1E3120E4A2428FBE433FA7D03E49A
:103D3B00FFA1C59004DDE06402702AD103719140AC
:103D4B000574FF120EB4E4F5FFE5D25480440AF576
:103D5B00D2120E4A2414FBE433FA7D027F01124483
:103D6B00FDD1578058E4FB7D01D100719140057462
:103D7B00FF120EB4E4F5FFD147441045F07F056008
:103D8B00027F0AEF547FFFE5D254804FF5D2E4F562
:103D9B00FF43D280D130FD7C00D147441045F07EEB
:103DAB000060047F0A80027F05EF25E0FFEE33FE03
:103DBB00EF2DFBEE3CFA7D017F011244FDD147FF55
:103DCB00AEF0A24F924EF1724006A23B92EDC3228F
:103DDB00D19090051EE0B1F724E5D1A5A23B92ED61
:103DEB00D2EBD322A23B92EDD2EBC322FF90051B69
:103DFB001212A6E922FFD15C90051B1212A6E92430
:103E0B00B1F9E43AFA120E4AFF90051B1212A6E919
:103E1B0024D8F9E43AFA120E4A2FFFE433FEEF24CA
:103E2B0001FFE43EFE90051B1212A6E924B2F9E451
:103E3B003AFAE92407F9E43AFA020E4A90051B1202
:103E4B0012A6E92404F9E43AFA021006E4FB7D0118
:103E5B00FFE4F5FF75D102E5D120E0FBE4F5FFF5BA
:103E6B00D1EF6008E4F5FF43D2808006E4F5FF5301
:103E7B00D27FEB6006E4F5FF43D104ED6006E4F579
:103E8B00FF43D10822E49004EEF07B017A0479FC25
:103E9B000208C1FF1212A6E92401F9E43AFAEF0273
:103EAB000F09902C34F1DCEBF07F02120B46902CB7
:103EBB003D1212AFEA494B6064902C35E0FFF12BB9
:103ECB0024B6D1A5E49008B2F09008A11212A61264
:103EDB004B4EEF6010902C34E04442F0F12B24D980
:103EEB00F133120F09902C36E0FF30E11EF12B2439
:103EFB00BAF133120F09EF54FC902C36F0FE902CD4
:103F0B00A2E054FDF0F13A7D01800C902C36E05488
:103F1B00FEF0FEF13A7D02120BDC7F01227F0022C4
:103F2B00902C3D1212A6E922F9E43AFA74FF229082
:103F3B002C34E0FF902C3AE0900907F0A3EEF090C0
:103F4B002C3BE0FDA3E0900909CDF0A3EDF0902C04
:103F5B003D1212A690090B1212AF902C370212A62B
:103F6B0024B2F9E43AFA224315015315DF319912C1
:103F7B0040AD4004E4F5142243FA045315FB304ED4
:103F8B0005122FF2800A7F55F19D7F55F19DD2EBE3
:103F9B00D32275FF01E5D520E602C322E5FA5403CF
:103FAB0060FA75FF018FC3D3227B01902D7CF02229
:103FBB00F9E43AFA740122F9E43AFAE4020F09E05F
:103FCB00FEA3E0FF7C0022F582E43408F58322F0A7
:103FDB00A3EFF0A3EDF0A322E5D254804414F5D265
:103FEB0022900741E0B4020D8F1B900960E0F5139E
:103FFB00120B28D322C32290099F1212AF90099F54
:10400B001212A6E51B1133113A11321145123FC2A0
:10401B0090099F114CF9E43AFAE51311331153113E
:10402B0032115EE4020F09E4120F0990099F22126C
:10403B0012A6E92401F9E43AFA221212A6E92402A3
:10404B00221212A6E92403221212A6E92404F9E48F
:10405B003AFA221212A6E92405F9E43AFA22E517F4
:10406B0054F0C4540F2FFFC3941040027F0FEF90F6
:10407B00057493FF227E10EE60091EEE900574937B
:10408B00B507F4EEC3940E40027E0DEE90056693D9
:10409B00FF22EF24FD600680007E018002E4FEAF6C
:1040AB0006229009A3EFF09004DDE0FF119D90092B
:1040BB00A4EFF09004DDE024FD6013047008900978
:1040CB00A27404F0800E9009A27408F08006900987
:1040DB00A27402F07F01120D4E9009A4E09009A288
:1040EB0011F9E4902D57F0121ED450EDD322FFE0BE
:1040FB00FDA3E0FB22C2AFEF4215D2AF22C2AFEF5E
:10410B00F45215D2AF227F023108900737E09007A7
:10411B0040F090073704F0C3940222EF24FE600CAA
:10412B0024FE600580007F01227F02227F0322C0D4
:10413B00E0C0F0C083C082C0D075D008C0FF75FF4F
:10414B0001E5D530E6047F028009E5D57F0030E735
:10415B00027F018F18E518640260024116E5141204
:10416B0013BC41860141990241FF0841A40941AFAB
:10417B000A41BD0B41DA0C0000437475FF0175C396
:10418B0055151AE51A60026174751402617475FF96
:10419B000175C3F0751409617475FF0175C355750D
:1041AB00140A617475FF019004EFE0F5C375140BED
:1041BB00617475FF019004DCE0F5C3751401751A89
:1041CB00149004FD71BF6002617475140C6174ABC3
:1041DB001CAA1DA91E719BAD16AF1F914C123E5709
:1041EB0075FF00123FE343FA0475FF00122FF575BC
:1041FB0014086174C2EB7514004315049159400205
:10420B006174E475F001120FDA6174E518640160F2
:10421B0002617471A740026174E510707175FF0142
:10422B00F5EA75EAFF9004DF1212A6E5D9120F0921
:10423B00718FE09004FFF0919431269004DBEFF046
:10424B009004FFE0FFD39409500241EC9004DBE0B3
:10425B00D39402400CEFD394AA7F0040027F0180DD
:10426B000D9004FFE0D394407F0040027F01EF608C
:10427B0002806E9004FFE0F51671C990121AEFF0F0
:10428B0075FF009004FFE0F5D97510036174E5101C
:10429B006403600261749004DF71AE123EA275FF7D
:1042AB00009004DBE0C39403E5D350055402FF8078
:1042BB00035401FFEF602F30E111C39004E9E09448
:1042CB00FF9004E8E094FF5018800FC39004EBE0DC
:1042DB0094FF9004EAE094FF5007E475F001120F8D
:1042EB00DA122FC56174C259121E5575FF00122FB9
:1042FB00BCE5D120E0FBC2EB4315027188A3E0FFC4
:10430B0090073AE0FEEF6E7187E09007397181A359
:10431B00A3E090073B7181A3A3A3E0FE90073CE0D1
:10432B00FDEE6D4F6016C39004EDE094FF9004EC2E
:10433B00E094FF5007E475F001120FDAC39004E725
:10434B00E094FF9004E6E094FF5007E475F001124F
:10435B000FDA7510009004DBE0B403071516718FAC
:10436B00E516F0900738E516F0D0FFD0D0D082D00C
:10437B0083D0F0D0E032FEE0FDEE6D4FFF85128270
:10438B0085118322E5122407F582E43511F583228A
:10439B00E4F5FFE971B6EA540F42D622E5F754C0B3
:1043AB0024FF221212A6120E4AFF22F5D7E4F5FFC4
:1043BB0053D6F02274FFF5F0120FDA45F022E5F434
:1043CB005418131313541FFF22122EE2EF640170C3
:1043DB006571C9902F36EFF0D394025059902D454B
:1043EB00E0FF902F36E06F704D122F88902F37EF34
:1043FB00F07B017A2F79377D01120C0E902F36E06E
:10440B002441F582E4342DF583EFF0902D45E00443
:10441B005401F07021902D43E07002A3E060177BF4
:10442B00017A2D793F1237907B017A2D793F902DB0
:10443B004391421213E622E0FEA3E0FFF5828E8346
:10444B0022E4F5FF8FD4F5FFCFEDCF8FD522C390AC
:10445B0004E3E094FF9004E2E094FF2291595007AB
:10446B00E475F001120FDA22E4F5FF75D102E5D104
:10447B0020E0FBE4F5D1F5FFEF71B6EE540F42D619
:10448B00E4F5FFCFEDCF8FD422E5F75406FFBF063F
:10449B00037F0822E5F75406FFBF04037F0422E5E0
:1044AB00F75406FFBF02037F02227F01227514011E
:1044BB00751A139004EFEFF09004DD7402F0ED9099
:1044CB0004FD30E507E4F0A3743AF022E4F0A374A2
:1044DB00E6F022C39004E5E094FF9004E4E094FF3F
:1044EB005007E475F001120FDA229004FDE0A3E00F
:1044FB00FF229009A5EFF0ED24FE6019146026242D
:10450B0002703BEB2402FFE43AFE7C007D50120F5D
:10451B003D7D60801EB171C333CE33CED8F9FF7CA5
:10452B00007D28800EB171C333CE33CED8F9FF7C1A
:10453B00007D64120F4F9009A6EEF0A3EFF09009E7
:10454B00A5E0B17CC083C0821212519009A7E02470
:10455B0001FF9009A6E03400FEE4FCFD121088D0A8
:10456B0082D08302125DEB2401FFE43AFEEF780365
:10457B002225E025E024F0F582E43404F58322EFD4
:10458B00B17C12123502121BE49004F0B1A8900416
:10459B00F4B1A8FFFEFDFC9004F802125DFFFEFDD6
:1045AB00FC12125DE422900739E0F4FFA3E06FFFE9
:1045BB00A3E06FFFA3E06FFF64556009EF644A60EF
:1045CB0004EFB40A010F9004DCEFF022A2EB92503F
:1045DB00C2EB7A0479E27B017D0CE4FF120858A24E
:1045EB005092EB22902D43EEF0A3EFF022902B96FE
:1045FB00E0FF1208ADE4902B96F022B1F8E5406491
:10460B00066006E54064077030902B96E06003F47B
:10461B007027E4FDFC7F01120ADD7E467F06C00693
:10462B00C0077F587E807D047C00123686D007D071
:10463B00061208B2902B96EFF0229026CCE0700871
:10464B007B017A2679C4D1679026CCE044C0F090E8
:10465B0026CFD16E9026D3E054FEF0227D107F231F
:10466B00020B82E054FEF0A3E044C0F0227405D3A9
:10467B009F500B7463C39F4005902B9FEFF0902BC3
:10468B009FE0FF22902F73EFF0BF0204E4FF80093D
:10469B00902F73E0B403057F01121DAA22EF701156
:1046AB00ED600775FF0143AE012275FF0153AEFEAE
:1046BB0022EFB40114901235EDF0600775FF014342
:1046CB00AE022275FF0153AEFD2275FF02E5E63007
:1046DB00E2037F0322E5E630E3037F0022E5E630C9
:1046EB00E1037F0422E5E67F0530E0027F0122EF44
:1046FB00600775FF0253E6BF2275FF0243E64022B7
:10470B00EF14600F146014240270188B8075FF0176
:10471B008DFD228B9075FF018DC9228BA075FF013A
:10472B008DCA22AF038FB075FF01AF058FCB2290DF
:10473B002D4E1212AFEF1460111460182402701E6C
:10474B00F174E580F17AE5FD801CF174E590F17A66
:10475B00E5C98012F174E5A0F17AE5CA8008F1741D
:10476B00E5B0F17AE5CB020F09902D510212A6129A
:10477B000F0975FF01902D4E0212A6E4F5FFAF91C4
:10478B0022E4F5FFAF9222902ECB122F707F017C8B
:10479B00127D01E4FE8D828C83ED2EF582E43CF5D7
:1047AB0083E02FFF0EEEB412EC901213E06F600A51
:1047BB00902ECB1226E1E4120F0922902E6F1212CB
:1047CB005D75FF01902E6FA3E0FDA3A3124F148F15
:1047DB00E1902E6FA3A3E0FEA3124F0A8FE2902E5F
:1047EB006FA3A3A3E0FF8FE322C25375FF03759B57
:1047FB001F75FF0390120FE020E71BE59A540FC3C0
:10480B0094024012E04480F0E4F5FF75C2A143FC32
:10481B000475FF03D253E5FC30E609E59A540FC348
:10482B00940540CDE5FC30E611E4120F0975FC80D0
:10483B00F5FC75FC40E5FC20E6FB3053031224EC41
:10484B0022EF30E00E43F401E4F5FF43A404F5FF3F
:10485B00759624EF30E10E43F401E4F5FF43A40811
:10486B00F5FF759624EF30E20943F402E4F5FF758A
:10487B00961EEF30E30943F404E4F5FF75961075CB
:10488B00FF01EF5403600475D7122275D72D22E474
:10489B00F5FF7584E6F5FF439404F5FF7598142234
:1048AB00E4F5FF75933F75FF03759A40119AE4F594
:1048BB00FF759C93F5FF75A1A3F5FF758531F5FF8A
:1048CB00758628E5FA54304480F5FA75FF0175E7D3
:1048DB004A75FF0275DF4975FF0143D30475FF016C
:1048EB0053D367E4F5FF53E6BF75FF0175D825F584
:1048FB00FF75B503F5FF75B215F5FF75BA02F5FF38
:10490B0075AFB3F5FF75CD0AF5FF75CB08F5FF75E0
:10491B00CA12F5FF75BF0EF5FF75CC96F5FFF5BD09
:10492B00F5FF75C281F5FF75AEE1F5FF75DA55F54B
:10493B00FF75F580F5FF75E903F5FF75E933F5FFB5
:10494B0075972A75FF01759B42759CA4759D2975FA
:10495B009E48759F2475A11275A312759AF820565F
:10496B000CF5FF43968090120FE04440F022CCEF01
:10497B00CCCFEDCF74017E00C8EFC8088005C333E0
:10498B00CE33CED8F9FFCDECCDEF5D601B30551893
:10499B0075FF0175DCAD75FF0175DDCDE4F5FF75B8
:1049AB009A74F5FF7594842275FF0175DC5375FFBE
:1049BB000175DD33E4F5FF759A14F5FF7594042248
:1049CB0031E553DB7F75FF0175D5021226EA31E520
:1049DB0043DB8075FF01E4F5D52275FF01438E1093
:1049EB0075FF012275FF0175E46575FF0175D647EB
:1049FB002275FF01E5D530E602C32253FACFEFB49F
:104A0B00080543FA308012EFB4040543FA208009FD
:104A1B00EFB4020543FA108000D32275FF018FDA41
:104A2B0022902E7FEE123FDAEBF051AAAC00AD01D3
:104A3B00AE02AF03C006C007902E7F51C1FBAA0682
:104A4B00E4F9F8D007D006D31211CE7E0050047FC4
:104A5B000180027F00C006C00751AAD0E02FFFD013
:104A6B00E03E902E7FF0A3EFF053ECFC902E7FE016
:104A7B00FCA3E0FDEC540342EC75FF02EDF5AF75C2
:104A8B00ED0275ED04A3E0600543EC08800353ECE5
:104A9B00F7902E82E0600443EC042253ECFB22904F
:104AAB002E7FE0FEA3E0FBAA06E4F9F87F807E38B8
:104ABB007D01FC0203A8E0C313FEA3E01322EF6009
:104ACB000775FF0243E6102275FF0253E6EF22E55E
:104ADB00ED30E2FB75ED04AFEF22E5ED20E0FB8F4F
:104AEB00EF22EF600443EC042253ECFB22EF600453
:104AFB0043EC082253ECF722E5ED5402FF22E5EDDF
:104B0B005404FF22E5ED5401FF22E4F5FFEFF5D845
:104B1B00E4F5FF53D60FEE540FC4F854F0C8E4C4B9
:104B2B00540F4842D622E4F5FF8FD422E4F5FFE57B
:104B3B00D1540133333354F8FFE4F5FFE5D3540775
:104B4B004FFF22902E4A1212AFE4902E4DF0A3F09D
:104B5B00902E4DE0902E4A7187902E4DEFF0600B0A
:104B6B007180EF6006902E4EE004F0902E4DE070B9
:104B7B00DFA3E0FF22E0FFC264020A4CFF1212A681
:104B8B000208DAEF6004902CA6F09008B2E09008CF
:104B9B00A171879008B2EFF0604C202B49902CA4A8
:104BAB00E0C330E501D3922E902CA3E0902CA7917B
:104BBB00051212AF902CA5E09008FAF0902CA2E011
:104BCB009008FBF0A37480910D9008B271FEEF700A
:104BDB0021902CA67402F0902CA0E0FEA3E0F582AD
:104BEB008E837F028009902CA6E0902CA0B1151229
:104BFB0013E622E0FBE4FF020BE6FD1212A690087F
:104C0B00F722F0A3744BF0A3748EF022902C411278
:104C1B0012AF902C40EFF0FE902C4B7403F0902CC5
:104C2B0048E05437F0E0FF5420902CA4F0902CA3D4
:104C3B00EEF0902C49E0FDA3E0902CA0CDF0A3ED7D
:104C4B00F0902C441212A6902CA71212AF902C4766
:104C5B00E0902CA5F0902C411212A69008A11212F4
:104C6B00AFEF4420902CA2F0E4902CA6F0C22BF5D1
:104C7B0046902C411212A6AF461208DA8F46EF600F
:104C8B002A7D03120AC940E9902C47E0D3941940BE
:104C9B00037F0022AF46120AC45008902C4B7401BC
:104CAB00F08008902C4B7402F080C6902C47E0FEED
:104CBB00D3948240037F0022902C48E0FB902C4B36
:104CCB0030E010B101C003B109902C3AEE910DD038
:104CDB00038020B101B109902C47E0902C3AF09061
:104CEB002CA0E0FBA3E0902C3BCBF0A3EBF0902CA3
:104CFB0048E0FB023EADE0FF902C40E0FD22902C03
:104D0B00441212A6902C370212AFFFE0FCA3E0FD79
:104D1B00F5828C8322902C6E1212AF902C6DEFF0DB
:104D2B00120AA64006902C6DE54EF0902C6DE0FF1C
:104D3B00902C711212A6902C441212AF902C74E08E
:104D4B00902C47F0902C75E0902C48F0902C76E04E
:104D5B00FDA3E0902C49CDF0A3EDF0902C6E121238
:104D6B00A681170208F3E4FF3034037402FF2220FC
:104D7B000005D2160209FCC322902F9CE0701C7B0D
:104D8B00FF7A0479987D23120B647BFF7A04798177
:104D9B007D17120B64902F9C7401F022020B697526
:104DAB00FF01E58F5408FF22EFB4010775FF0143A4
:104DBB00AE202275FF0153AEDF22EFB4010775FF62
:104DCB00014391202275FF015391DF221212AF9004
:104DDB002B63E0540F22C20A7B007A00794E902D90
:104DEB00BE1212AF0B7A07793922FF1212A6EF020D
:104DFB000F09FDEF4DFFE5F08FF00210697B017A93
:104E0B0007793922120F099004710212A6F0A3F050
:104E1B00A3F0A3F0222409F9E43AFA22902B3C02E6
:104E2B0012A6E4FFFEFDFC901216121251C30211E2
:104E3B00E4E0FFA3E0902BEECFF0A3EFF02274FFA2
:104E4B00F5F0120FF045F022900740E0FD75F0AA47
:104E5B0090074512129AAF82AE83EF22900742E081
:104E6B00FEA3E0FF1208BCD3EF94C8EE940022D24D
:104E7B002D7B017A08799B22E4120F090429F9E4AE
:104E8B003AFA22900943F0A3EFF022F07B017A2744
:104E9B00797622E09008FAF0A3EFF0E4A3227A08E7
:104EAB0079CE7F0422ECF0A3EDF0A322E99582EA00
:104EBB00958322C8ECC8C9EDC9CAEECACBEFCB2289
:104ECB00E9242DF9E43AFA7D04E4FF22E924FFF901
:104EDB00EA34FF22E0F8A3E0F9A3E0FAA3E0FB2217
:104EEB00F0A3EDF0E4A3F0228D828C830213E6AFE6
:104EFB0003EAF0A3EFF022E92420F9E43AFA22E4E2
:104F0B00FFE4FDFC78080211F5E4FFFEE4FC7810E9
:104F1B000211F5F090285E7401F022902D3DE4F023
:104F2B00A322E0FEA3E0FFC322E9242CF9E43AFA22
:104F3B00744022AF05F0A3EFF0221212A6E924B7BA
:104F4B0022240CF9E43AFA2275F005A424F3F9743F
:104F5B0000221212AF020E4A7B017A2E79167F02C3
:104F6B0022F9E43AFA1212C4E922902DDDECF0A3F7
:104F7B00EDF02224FEF9EA34FFFA22F583EEF0A3DA
:104F8B00EFF022FFAEF054076403227438F0A374E1
:104F9B0043F022F9E43AFA7E00E922FF54F0C454BC
:104FAB000FFE227401F0AE04AF0522AA06A9070278
:104FBB0013E2E0FFA3E0FEC39F22900739E0C39406
:0A4FCB00C022F582E43EF583E022E7
:107F7E000200022B332FED020609022FEF302300F1
:107F8E0039040609023028382A080705060902387E
:087F9E002F383D0013FF060916
:107FB000FFFF1F1F1FFFFFFF7FC600000000000024
:067FC000000003080000B0
:108000007B01E4FFAE051DEE6009EF120F0912D8E7
:108010001380F122902EA712D77EB14911FA4AC3DC
:108020006001D3400201F812F68D5013E0FF940472
:10803000500280027F0411FAB18B128D7FD1F29031
:108040002B3C123E4A5467902B4F11F924DF31C369
:10805000902B4A11F924E631C3902B5011F924E7F3
:1080600031C3902B5111F924E831C3902B5211F9EF
:1080700024E431C3902B4811F924E531C3902B49F6
:1080800011F924E9123E5012F94B124E27B187E440
:10809000902B3F11F924DC123E5045F06051902E98
:1080A000A7E0602CA31212A6128D7F7A2B794312BF
:1080B000F9B6B15DC003C002C00111FA24DC123E62
:1080C00050F58285F083D001D002D003E4FF801CFC
:1080D000B15DC003C002C00111FA24DC123E50F5AC
:1080E0008285F083D001D002D0037F011213E61203
:1080F0003752902B3C1212AF22F0902B3C1212A65A
:10810000E922AE058E5112B54BAD5112B461EF2488
:10811000FF22902B3C1212AFE924E331C36017E435
:10812000902B5311F912403E7401120F097E0B7F00
:1081300032FD7C00807C11FA240131C3D3940140CC
:108140003B120BD7902B53EFF07E0B7F3211FA24AA
:10815000B731C330E71911FA24BB31C320E0101145
:10816000FA24BC31C312F98AB504047D07800911D1
:10817000FA24B131C312F9AE7C008036E4902B535F
:10818000F07E0B7F3211FA24B731C330E71911FAB0
:1081900024BB31C320E01011FA24BC31C312F98A88
:1081A000B504047D07800911FA24B131C312F9AE78
:1081B0007C00020BD20206F8C219902BDA1212A62A
:1081C000E92402F9E43AFA020E4AE54360024188E2
:1081D000518EE9240431C330E61B518EE92407F99E
:1081E000E43AFAE475F064121069518E7406120FC5
:1081F00009C22C8048518EE9240531C34420518D99
:10820000E92429123EA5518E124F34120F09518EC6
:10821000124ECB1104518E7405120F09518EE924B0
:108220000431C330E3067E037FE880047E077FD0FD
:10823000518EE9240712F414121069D22C90046EA6
:1082400031BD518DE9240331C3FD518E124F02C05F
:1082500003C002C001518EE9240631C3900914F015
:10826000518EE9240431C354F7900915F0A3740A20
:10827000F0A374E7F0D001D002D003120BE1EF704D
:1082800007518E7407120F092290121AE0FF900412
:108290006E0212A6902EAB1212AFE94AC36001D350
:1082A00040026175902EAB31BD30E016717624B777
:1082B00031C3540FFFBF0503D38001C34004B16431
:1082C0002112B149B16412F68D5013E0FF940450AD
:1082D0000280027F047176B18B128D7FD1F2902ED5
:1082E000AB123E4A5467902B4FF0717624DF31C3B6
:1082F000902B4AF0717624E631C3902B50F07176C2
:1083000024E731C3902B51F0717624E831C3902BD0
:1083100052F0717624E431C3902B48F0717624E555
:1083200031C3902B49F0717624E9123E5012F94B7B
:10833000717624E331C3902EAE7003F08003740194
:10834000F0717624DC123E5045F06025902EAEE0B0
:10835000FFB15DC003C002C001717624DC123E5043
:10836000FDACF0F58285F083D001D002D00312136A
:10837000E6B164B18722902EAB1212A6E92211FA5F
:108380004AC36001D3507911FA12403E74FF120EB5
:10839000B4120E4AFFD394014007EF9403500280B9
:1083A0005211FA240131C36401704D902B3C123EEE
:1083B0004A124F8E703D11FA24B631C3654E7033A8
:1083C00011FA24B731C320E72A11FA24B931C3D3F3
:1083D0009440501F200D1C11FA124057EF54F844DE
:1083E00002FFEE8FF012106911FA24B731C3441066
:1083F000120F09124E278009E4902B3FF0120BEB6D
:10840000229009A81212AF9009A8D19D540F120F03
:10841000099009A81212A6E924E6123FBB020EB485
:108420007D01AF37300C53ED6017E4FEB103E0B5CA
:108430000709B103E4F091F6E4F0220EEEB405EC86
:108440002290265CE0FDE4FCFEB103E0B5070E914E
:10845000F6E0C394FF502391F6E004F02291F6E099
:10846000FBEDD39B4004AD03AC060EEEB405DAEC95
:10847000B104EFF0EC91F77401F02212B7F9293151
:10848000C312F9758002C333D8FCF45F020F09519F
:108490008EE4120F09518EE9240531C314600304E0
:1084A0007053518EE9242C31C3540F9009C3F090BE
:1084B000046E602E1212A6E9242B31C3FF12375925
:1084C000EFFD9009C3E014F075F064A42419FFE4F3
:1084D00035F0CF2DCF3400FE518EE9240712F4146D
:1084E00080091212A6E9240712F41E121069518E97
:1084F0007402120F0922EE25E0245CF582E4342692
:10850000F58322EE25E0245BF582E43426F5832210
:108510007A2679557F05902D631212AFAE071FEEB4
:108520006026902D66D19DFE902D631212A6EE124C
:108530000F09902D64E475F001120FDA902D67E4B5
:1085400075F001120FDA80D422B15D7D13E4FF11C2
:10855000047B017A2B79437D057F7F01047B017ABF
:108560002B794022902EAB0212A69027D0E0FFEF8D
:108570006011D394E8500C12D462AD0712B461EFCD
:1085800024FF22C3228101E4020F0924BDF9E43A49
:10859000FA22902DBB1212AF7E007F14122013908E
:1085A0002DBE124DF6902DBED19D701004120F09F4
:1085B000D1ECE94A60177E007F08800AD1ECE94AD5
:1085C000600B7E007F10D1EC740412C0B522E5432D
:1085D00024FD60511460142403706812F23C50634F
:1085E000C228518E12403D7401804E518EE9240BF9
:1085F000F9E43AFAC003C002C0017B017A0479BBF6
:10860000128D7FD001D002D0037F13B116518EE9B5
:10861000240431C35409700280225189E9241312C1
:108620003EA5D22822518EE9240331C3B54414510A
:1086300089E92413F9E43AFAEF120F09518E74070D
:10864000120F0922902ECE1212AF7E007F1412213B
:10865000167E007F10902ECE1212A612A244122770
:10866000EC7F0122902D6A1212AFAE071FEE602739
:10867000902D6DD19DFE902D6AD19D6E60037F017E
:1086800022902D6BE475F001120FDA902D6EE475D7
:10869000F001120FDA80D37F0022902D771212A6FC
:1086A000020E4A902F041212AF902F04D19DFF6446
:1086B000226005EF6423703330051AE9240131C3C9
:1086C00012B54A12F92A600DD213902F041236FD0A
:1086D00031C312DD57902F041236FD31C3FF7D02E6
:1086E00012A83512C92BE49026D4F022902DBB029B
:1086F00012A67B017A2B794BA116902DCDE0FFD2EB
:1087000064902F86EFF030641A9027CFE0FFD39467
:10871000004010EF940A500B9026D4E064026003EE
:108720007F0022902F8612DF1C600B902F8612B1E3
:10873000B45460FF80027F00229009281212AF1209
:1087400012C4E9240931C3541FF545128D4624078C
:1087500031C3FFE54064016022E5406402601C749F
:1087600012D39F5016E545B402067419D39F500BDF
:10877000E545B40108741BD39F4002C322128D4605
:10878000240A31C330E21B128D46240831C3FF6531
:108790004E600FB16F400B128D46240431C3FF129F
:1087A000F300E5456402600302885A128D5AE924F9
:1087B0000731C330E703028858128D46240831C3BD
:1087C000FF654E6004B16F5029202803028858C20B
:1087D00028128D46240431C3FD7F0312F101128D4E
:1087E00046240431C3FFD25E128D46241312BBA56A
:1087F0008066128D46240C31C3FF540FFE6059125F
:108800008D46240DF9E43AFA1E7C00E92EF9EC3A83
:10881000FA120E4A654E7040B14624071281C364B5
:10882000197035B146124F4CEF54F024102EB1435D
:10883000240B123FC2B15A1212C4B17F7F18D12F3C
:10884000C22CB14624041281C3FFB1462408128110
:10885000C3FD12D40F120BE1C322E490092EF09055
:10886000092EE0FFC394045023B146240D124F9EFD
:108870002FF9EE3AFA120E4AFF654E600512856F27
:108880005002C32290092EE004F080D3B1462404A4
:108890001281C3FFB14624061281C3540FFD12F3A7
:1088A000AA5002C322B14624081281C3FF654E704C
:1088B00002410912856F50024109E54064057002CA
:1088C0004109E540640470024109E5406406700214
:1088D0004109E54064077002410990274DE020E01E
:1088E000024109E5456401600BB15AE92407128190
:1088F000C330E7172026024109E5456401600241C3
:1089000009B146B1DAB1E34002410912D25B8F42AC
:10891000BF0202C322B14624071281C3FF7440C3C1
:108920009F5002C322E545B4011DB1462411F9E46C
:108930003AFA7B01C002C0017A077939B17FD001D0
:10894000D0027F0412851612F8A8B14624071281BE
:10895000C3B151124F03C003C002C001B15A121279
:10896000C4B17FD001D002D003128516B1462404D1
:108970001281C3FF12F29CB14624061281C3540F28
:10898000FE12F3FFA60612F29376070876D0B146E0
:10899000240C1281C354F0FF606F7440C39F406980
:1089A00074F02FB151242C1281C3540FFE7404D3E0
:1089B0009E4056B152242DF9E43AFAEE12D8BDE5A4
:1089C0004E120F09EF2E04B151242CB13E24041293
:1089D00081C3B1512402B13E24081281C3FF900427
:1089E00071B164EF124E0F7401120F09B1521240AF
:1089F000577440B14324071281C3B1512406123E7B
:108A0000A5B15212F41C121069B14624081281C398
:108A1000FF654E601F12856F500BB15AE924071293
:108A200081C330E70F20370CB14624081281C3F40C
:108A3000600281F6B15AE924071281C320E704E5F8
:108A400045602DE5456401600281F6B146B1DAB1B9
:108A5000E3400281F6E54064076008E54064056094
:108A60000281F620250281F69027CFE0600281F690
:108A7000B1462411F9E43AFAC003C002C0019009DA
:108A800028B1641212E4B14624071281C324EEB166
:108A9000CF123EA5303715B14624081281C3FF65B9
:108AA0004E6009EFF4600512856F500FB15AE9244A
:108AB000071281C34401120F098002C322E54564F5
